{
  "contractName": "PollToken",
  "abi": [
    {
      "constant": true,
      "inputs": [],
      "name": "name",
      "outputs": [
        {
          "name": "",
          "type": "string"
        }
      ],
      "payable": false,
      "stateMutability": "view",
      "type": "function"
    },
    {
      "constant": false,
      "inputs": [],
      "name": "stop",
      "outputs": [],
      "payable": false,
      "stateMutability": "nonpayable",
      "type": "function"
    },
    {
      "constant": false,
      "inputs": [
        {
          "name": "guy",
          "type": "address"
        },
        {
          "name": "wad",
          "type": "uint256"
        }
      ],
      "name": "approve",
      "outputs": [
        {
          "name": "",
          "type": "bool"
        }
      ],
      "payable": false,
      "stateMutability": "nonpayable",
      "type": "function"
    },
    {
      "constant": false,
      "inputs": [
        {
          "name": "owner_",
          "type": "address"
        }
      ],
      "name": "setOwner",
      "outputs": [],
      "payable": false,
      "stateMutability": "nonpayable",
      "type": "function"
    },
    {
      "constant": false,
      "inputs": [
        {
          "name": "poll_",
          "type": "bytes32"
        }
      ],
      "name": "setPoll",
      "outputs": [],
      "payable": false,
      "stateMutability": "nonpayable",
      "type": "function"
    },
    {
      "constant": true,
      "inputs": [],
      "name": "totalSupply",
      "outputs": [
        {
          "name": "",
          "type": "uint256"
        }
      ],
      "payable": false,
      "stateMutability": "view",
      "type": "function"
    },
    {
      "constant": false,
      "inputs": [
        {
          "name": "src",
          "type": "address"
        },
        {
          "name": "dst",
          "type": "address"
        },
        {
          "name": "wad",
          "type": "uint256"
        }
      ],
      "name": "transferFrom",
      "outputs": [
        {
          "name": "",
          "type": "bool"
        }
      ],
      "payable": false,
      "stateMutability": "nonpayable",
      "type": "function"
    },
    {
      "constant": true,
      "inputs": [],
      "name": "decimals",
      "outputs": [
        {
          "name": "",
          "type": "uint8"
        }
      ],
      "payable": false,
      "stateMutability": "view",
      "type": "function"
    },
    {
      "constant": false,
      "inputs": [
        {
          "name": "dst",
          "type": "address"
        },
        {
          "name": "wad",
          "type": "uint256"
        }
      ],
      "name": "mint",
      "outputs": [],
      "payable": false,
      "stateMutability": "nonpayable",
      "type": "function"
    },
    {
      "constant": false,
      "inputs": [
        {
          "name": "wad",
          "type": "uint256"
        }
      ],
      "name": "burn",
      "outputs": [],
      "payable": false,
      "stateMutability": "nonpayable",
      "type": "function"
    },
    {
      "constant": false,
      "inputs": [
        {
          "name": "question",
          "type": "address"
        }
      ],
      "name": "addQuestion",
      "outputs": [],
      "payable": false,
      "stateMutability": "nonpayable",
      "type": "function"
    },
    {
      "constant": true,
      "inputs": [
        {
          "name": "wad",
          "type": "uint256"
        }
      ],
      "name": "getPayoutAmount",
      "outputs": [
        {
          "name": "",
          "type": "uint256"
        }
      ],
      "payable": false,
      "stateMutability": "view",
      "type": "function"
    },
    {
      "constant": true,
      "inputs": [
        {
          "name": "who",
          "type": "address"
        }
      ],
      "name": "balanceOf",
      "outputs": [
        {
          "name": "",
          "type": "uint256"
        }
      ],
      "payable": false,
      "stateMutability": "view",
      "type": "function"
    },
    {
      "constant": true,
      "inputs": [],
      "name": "maxBalance",
      "outputs": [
        {
          "name": "",
          "type": "uint256"
        }
      ],
      "payable": false,
      "stateMutability": "view",
      "type": "function"
    },
    {
      "constant": true,
      "inputs": [],
      "name": "stopped",
      "outputs": [
        {
          "name": "",
          "type": "bool"
        }
      ],
      "payable": false,
      "stateMutability": "view",
      "type": "function"
    },
    {
      "constant": true,
      "inputs": [],
      "name": "owner",
      "outputs": [
        {
          "name": "",
          "type": "address"
        }
      ],
      "payable": false,
      "stateMutability": "view",
      "type": "function"
    },
    {
      "constant": true,
      "inputs": [],
      "name": "symbol",
      "outputs": [
        {
          "name": "",
          "type": "string"
        }
      ],
      "payable": false,
      "stateMutability": "view",
      "type": "function"
    },
    {
      "constant": true,
      "inputs": [],
      "name": "getQuestions",
      "outputs": [
        {
          "name": "",
          "type": "address[]"
        }
      ],
      "payable": false,
      "stateMutability": "view",
      "type": "function"
    },
    {
      "constant": true,
      "inputs": [],
      "name": "poll",
      "outputs": [
        {
          "name": "",
          "type": "bytes32"
        }
      ],
      "payable": false,
      "stateMutability": "view",
      "type": "function"
    },
    {
      "constant": false,
      "inputs": [
        {
          "name": "dst",
          "type": "address"
        },
        {
          "name": "wad",
          "type": "uint256"
        }
      ],
      "name": "transfer",
      "outputs": [
        {
          "name": "",
          "type": "bool"
        }
      ],
      "payable": false,
      "stateMutability": "nonpayable",
      "type": "function"
    },
    {
      "constant": false,
      "inputs": [],
      "name": "start",
      "outputs": [],
      "payable": false,
      "stateMutability": "nonpayable",
      "type": "function"
    },
    {
      "constant": false,
      "inputs": [
        {
          "name": "name_",
          "type": "string"
        }
      ],
      "name": "setName",
      "outputs": [],
      "payable": false,
      "stateMutability": "nonpayable",
      "type": "function"
    },
    {
      "constant": false,
      "inputs": [],
      "name": "addPoll",
      "outputs": [],
      "payable": false,
      "stateMutability": "nonpayable",
      "type": "function"
    },
    {
      "constant": false,
      "inputs": [],
      "name": "retrieveBalance",
      "outputs": [],
      "payable": false,
      "stateMutability": "nonpayable",
      "type": "function"
    },
    {
      "constant": true,
      "inputs": [
        {
          "name": "owner",
          "type": "address"
        },
        {
          "name": "spender",
          "type": "address"
        }
      ],
      "name": "allowance",
      "outputs": [
        {
          "name": "",
          "type": "uint256"
        }
      ],
      "payable": false,
      "stateMutability": "view",
      "type": "function"
    },
    {
      "constant": false,
      "inputs": [
        {
          "name": "src",
          "type": "address"
        },
        {
          "name": "wad",
          "type": "uint256"
        }
      ],
      "name": "pull",
      "outputs": [
        {
          "name": "",
          "type": "bool"
        }
      ],
      "payable": false,
      "stateMutability": "nonpayable",
      "type": "function"
    },
    {
      "inputs": [
        {
          "name": "name_",
          "type": "string"
        },
        {
          "name": "symbol_",
          "type": "string"
        }
      ],
      "payable": false,
      "stateMutability": "nonpayable",
      "type": "constructor"
    },
    {
      "payable": true,
      "stateMutability": "payable",
      "type": "fallback"
    },
    {
      "anonymous": false,
      "inputs": [
        {
          "indexed": true,
          "name": "src",
          "type": "address"
        },
        {
          "indexed": false,
          "name": "wad",
          "type": "uint256"
        }
      ],
      "name": "Burnt",
      "type": "event"
    },
    {
      "anonymous": false,
      "inputs": [
        {
          "indexed": true,
          "name": "src",
          "type": "address"
        },
        {
          "indexed": false,
          "name": "wad",
          "type": "uint256"
        }
      ],
      "name": "Minted",
      "type": "event"
    },
    {
      "anonymous": false,
      "inputs": [
        {
          "indexed": true,
          "name": "from",
          "type": "address"
        },
        {
          "indexed": true,
          "name": "to",
          "type": "address"
        },
        {
          "indexed": false,
          "name": "value",
          "type": "uint256"
        }
      ],
      "name": "Transfer",
      "type": "event"
    },
    {
      "anonymous": false,
      "inputs": [
        {
          "indexed": true,
          "name": "owner",
          "type": "address"
        },
        {
          "indexed": true,
          "name": "spender",
          "type": "address"
        },
        {
          "indexed": false,
          "name": "value",
          "type": "uint256"
        }
      ],
      "name": "Approval",
      "type": "event"
    },
    {
      "anonymous": false,
      "inputs": [
        {
          "indexed": false,
          "name": "newOwner",
          "type": "address"
        }
      ],
      "name": "OwnerSet",
      "type": "event"
    }
  ],
  "bytecode": "0x60606040526012600360006101000a81548160ff021916908360ff16021790555034156200002c57600080fd5b60405162001db238038062001db283398101604052808051820191906020018051820191905050336000806101000a81548173ffffffffffffffffffffffffffffffffffffffff021916908373ffffffffffffffffffffffffffffffffffffffff1602179055508160029080519060200190620000ab929190620000e8565b508060019080519060200190620000c4929190620000e8565b506001600060146101000a81548160ff021916908315150217905550505062000197565b828054600181600116156101000203166002900490600052602060002090601f016020900481019282601f106200012b57805160ff19168380011785556200015c565b828001600101855582156200015c579182015b828111156200015b5782518255916020019190600101906200013e565b5b5090506200016b91906200016f565b5090565b6200019491905b808211156200019057600081600090555060010162000176565b5090565b90565b611c0b80620001a76000396000f300606060405260043610610154576000357c0100000000000000000000000000000000000000000000000000000000900463ffffffff16806306fdde031461016857806307da68f5146101f6578063095ea7b31461020b57806313af403514610265578063146e6c151461029e57806318160ddd146102c557806323b872dd146102ee578063313ce5671461036757806340c10f191461039657806342966c68146103d85780634c7f784a146103fb578063586dd2ee1461043457806370a082311461046b57806373ad468a146104b857806375f12b21146104e15780638da5cb5b1461050e57806395d89b411461056357806397221ab7146105f1578063a11752791461065b578063a9059cbb1461068c578063be9a6555146106e6578063c47f0027146106fb578063d1bb9d0b14610758578063d79bd4991461076d578063dd62ed3e14610782578063f2d5d56b146107ee575b61016060055434610848565b600581905550005b341561017357600080fd5b61017b610864565b6040518080602001828103825283818151815260200191508051906020019080838360005b838110156101bb5780820151818401526020810190506101a0565b50505050905090810190601f1680156101e85780820380516001836020036101000a031916815260200191505b509250505060405180910390f35b341561020157600080fd5b610209610902565b005b341561021657600080fd5b61024b600480803573ffffffffffffffffffffffffffffffffffffffff16906020019091908035906020019091905050610998565b604051808215151515815260200191505060405180910390f35b341561027057600080fd5b61029c600480803573ffffffffffffffffffffffffffffffffffffffff16906020019091905050610abd565b005b34156102a957600080fd5b6102c3600480803560001916906020019091905050610bdf565b005b34156102d057600080fd5b6102d8610c7c565b6040518082815260200191505060405180910390f35b34156102f957600080fd5b61034d600480803573ffffffffffffffffffffffffffffffffffffffff1690602001909190803573ffffffffffffffffffffffffffffffffffffffff16906020019091908035906020019091905050610c82565b604051808215151515815260200191505060405180910390f35b341561037257600080fd5b61037a6110f4565b604051808260ff1660ff16815260200191505060405180910390f35b34156103a157600080fd5b6103d6600480803573ffffffffffffffffffffffffffffffffffffffff16906020019091908035906020019091905050611107565b005b34156103e357600080fd5b6103f960048080359060200190919050506112ee565b005b341561040657600080fd5b610432600480803573ffffffffffffffffffffffffffffffffffffffff16906020019091905050611479565b005b341561043f57600080fd5b61045560048080359060200190919050506114fa565b6040518082815260200191505060405180910390f35b341561047657600080fd5b6104a2600480803573ffffffffffffffffffffffffffffffffffffffff16906020019091905050611535565b6040518082815260200191505060405180910390f35b34156104c357600080fd5b6104cb611599565b6040518082815260200191505060405180910390f35b34156104ec57600080fd5b6104f461159f565b604051808215151515815260200191505060405180910390f35b341561051957600080fd5b6105216115b2565b604051808273ffffffffffffffffffffffffffffffffffffffff1673ffffffffffffffffffffffffffffffffffffffff16815260200191505060405180910390f35b341561056e57600080fd5b6105766115d7565b6040518080602001828103825283818151815260200191508051906020019080838360005b838110156105b657808201518184015260208101905061059b565b50505050905090810190601f1680156105e35780820380516001836020036101000a031916815260200191505b509250505060405180910390f35b34156105fc57600080fd5b610604611675565b6040518080602001828103825283818151815260200191508051906020019060200280838360005b8381101561064757808201518184015260208101905061062c565b505050509050019250505060405180910390f35b341561066657600080fd5b61066e611724565b60405180826000191660001916815260200191505060405180910390f35b341561069757600080fd5b6106cc600480803573ffffffffffffffffffffffffffffffffffffffff1690602001909190803590602001909190505061172a565b604051808215151515815260200191505060405180910390f35b34156106f157600080fd5b6106f9611757565b005b341561070657600080fd5b610756600480803590602001908201803590602001908080601f016020809104026020016040519081016040528093929190818152602001838380828437820191505050505050919050506117ce565b005b341561076357600080fd5b61076b611843565b005b341561077857600080fd5b6107806118c9565b005b341561078d57600080fd5b6107d8600480803573ffffffffffffffffffffffffffffffffffffffff1690602001909190803573ffffffffffffffffffffffffffffffffffffffff1690602001909190505061199e565b6040518082815260200191505060405180910390f35b34156107f957600080fd5b61082e600480803573ffffffffffffffffffffffffffffffffffffffff16906020019091908035906020019091905050611a40565b604051808215151515815260200191505060405180910390f35b6000828284019150811015151561085e57600080fd5b92915050565b60028054600181600116156101000203166002900480601f0160208091040260200160405190810160405280929190818152602001828054600181600116156101000203166002900480156108fa5780601f106108cf576101008083540402835291602001916108fa565b820191906000526020600020905b8154815290600101906020018083116108dd57829003601f168201915b505050505081565b6000809054906101000a900473ffffffffffffffffffffffffffffffffffffffff1673ffffffffffffffffffffffffffffffffffffffff163373ffffffffffffffffffffffffffffffffffffffff1614151561095d57600080fd5b6001600060146101000a81548160ff0219169083151502179055503073ffffffffffffffffffffffffffffffffffffffff1631600581905550565b60008060149054906101000a900460ff161515156109b257fe5b81600960006006546000191660001916815260200190815260200160002060003373ffffffffffffffffffffffffffffffffffffffff1673ffffffffffffffffffffffffffffffffffffffff16815260200190815260200160002060008573ffffffffffffffffffffffffffffffffffffffff1673ffffffffffffffffffffffffffffffffffffffff168152602001908152602001600020819055508273ffffffffffffffffffffffffffffffffffffffff163373ffffffffffffffffffffffffffffffffffffffff167f8c5be1e5ebec7d5bd14f71427d1e84f3dd0314c0f7b2291e5b200ac8c7c3b925846040518082815260200191505060405180910390a36001905092915050565b6000809054906101000a900473ffffffffffffffffffffffffffffffffffffffff1673ffffffffffffffffffffffffffffffffffffffff163373ffffffffffffffffffffffffffffffffffffffff16141515610b1857600080fd5b806000806101000a81548173ffffffffffffffffffffffffffffffffffffffff021916908373ffffffffffffffffffffffffffffffffffffffff1602179055507f50146d0e3c60aa1d17a70635b05494f864e86144a2201275021014fbf08bafe26000809054906101000a900473ffffffffffffffffffffffffffffffffffffffff16604051808273ffffffffffffffffffffffffffffffffffffffff1673ffffffffffffffffffffffffffffffffffffffff16815260200191505060405180910390a150565b6000809054906101000a900473ffffffffffffffffffffffffffffffffffffffff1673ffffffffffffffffffffffffffffffffffffffff163373ffffffffffffffffffffffffffffffffffffffff16141515610c3a57600080fd5b60076000826000191660001916815260200190815260200160002060009054906101000a900460ff161515610c6e57600080fd5b806006816000191690555050565b60045481565b6000610c8c611afa565b600080600060149054906101000a900460ff16151515610ca857fe5b600a600060065460001916600019168152602001908152602001600020805480602002602001604051908101604052809291908181526020018280548015610d4557602002820191906000526020600020905b8160009054906101000a900473ffffffffffffffffffffffffffffffffffffffff1673ffffffffffffffffffffffffffffffffffffffff1681526020019060010190808311610cfb575b50505050509250600090505b82518161ffff161015610dbd578573ffffffffffffffffffffffffffffffffffffffff16838261ffff16815181101515610d8757fe5b9060200190602002015173ffffffffffffffffffffffffffffffffffffffff161415610db257600191505b806001019050610d51565b8673ffffffffffffffffffffffffffffffffffffffff163373ffffffffffffffffffffffffffffffffffffffff16141515610ea55784600960006006546000191660001916815260200190815260200160002060008973ffffffffffffffffffffffffffffffffffffffff1673ffffffffffffffffffffffffffffffffffffffff16815260200190815260200160002060003373ffffffffffffffffffffffffffffffffffffffff1673ffffffffffffffffffffffffffffffffffffffff1681526020019081526020016000205410151515610e9857600080fd5b811515610ea457600080fd5b5b610f09600860006006546000191660001916815260200190815260200160002060008973ffffffffffffffffffffffffffffffffffffffff1673ffffffffffffffffffffffffffffffffffffffff1681526020019081526020016000205486611a6d565b600860006006546000191660001916815260200190815260200160002060008973ffffffffffffffffffffffffffffffffffffffff1673ffffffffffffffffffffffffffffffffffffffff16815260200190815260200160002081905550610fcb600860006006546000191660001916815260200190815260200160002060008873ffffffffffffffffffffffffffffffffffffffff1673ffffffffffffffffffffffffffffffffffffffff1681526020019081526020016000205486610848565b600860006006546000191660001916815260200190815260200160002060008873ffffffffffffffffffffffffffffffffffffffff1673ffffffffffffffffffffffffffffffffffffffff168152602001908152602001600020600082825401925050819055508573ffffffffffffffffffffffffffffffffffffffff168773ffffffffffffffffffffffffffffffffffffffff167fddf252ad1be2c89b69c2b068fc378daa952ba7f163c4a11628f55a4df523b3ef876040518082815260200191505060405180910390a381156110e6578673ffffffffffffffffffffffffffffffffffffffff166108fc6110c0876114fa565b9081150290604051600060405180830381858888f1935050505015156110e557600080fd5b5b600193505050509392505050565b600360009054906101000a900460ff1681565b6000809054906101000a900473ffffffffffffffffffffffffffffffffffffffff1673ffffffffffffffffffffffffffffffffffffffff163373ffffffffffffffffffffffffffffffffffffffff1614151561116257600080fd5b6111c6600860006006546000191660001916815260200190815260200160002060008473ffffffffffffffffffffffffffffffffffffffff1673ffffffffffffffffffffffffffffffffffffffff1681526020019081526020016000205482610848565b600860006006546000191660001916815260200190815260200160002060008473ffffffffffffffffffffffffffffffffffffffff1673ffffffffffffffffffffffffffffffffffffffff1681526020019081526020016000208190555061123060045482610848565b6004819055508173ffffffffffffffffffffffffffffffffffffffff167f30385c845b448a36257a6a1716e6ad2e1bc2cbe333cde1e69fe849ad6511adfe826040518082815260200191505060405180910390a28173ffffffffffffffffffffffffffffffffffffffff16600073ffffffffffffffffffffffffffffffffffffffff167fddf252ad1be2c89b69c2b068fc378daa952ba7f163c4a11628f55a4df523b3ef836040518082815260200191505060405180910390a35050565b611352600860006006546000191660001916815260200190815260200160002060003373ffffffffffffffffffffffffffffffffffffffff1673ffffffffffffffffffffffffffffffffffffffff1681526020019081526020016000205482611a6d565b600860006006546000191660001916815260200190815260200160002060003373ffffffffffffffffffffffffffffffffffffffff1673ffffffffffffffffffffffffffffffffffffffff168152602001908152602001600020819055506113bc60045482611a6d565b6004819055503373ffffffffffffffffffffffffffffffffffffffff167f919f7e2092ffcc9d09f599be18d8152860b0c054df788a33bc549cdd9d0f15b1826040518082815260200191505060405180910390a2600073ffffffffffffffffffffffffffffffffffffffff163373ffffffffffffffffffffffffffffffffffffffff167fddf252ad1be2c89b69c2b068fc378daa952ba7f163c4a11628f55a4df523b3ef836040518082815260200191505060405180910390a350565b600a60006006546000191660001916815260200190815260200160002080548060010182816114a89190611b0e565b9160005260206000209001600083909190916101000a81548173ffffffffffffffffffffffffffffffffffffffff021916908373ffffffffffffffffffffffffffffffffffffffff1602179055505050565b60008061151461150e6004546103e8611a89565b84611ad5565b905061152d6115276005546103e8611a89565b82611ad5565b915050919050565b6000600860006006546000191660001916815260200190815260200160002060008373ffffffffffffffffffffffffffffffffffffffff1673ffffffffffffffffffffffffffffffffffffffff168152602001908152602001600020549050919050565b60055481565b600060149054906101000a900460ff1681565b6000809054906101000a900473ffffffffffffffffffffffffffffffffffffffff1681565b60018054600181600116156101000203166002900480601f01602080910402602001604051908101604052809291908181526020018280546001816001161561010002031660029004801561166d5780601f106116425761010080835404028352916020019161166d565b820191906000526020600020905b81548152906001019060200180831161165057829003601f168201915b505050505081565b61167d611afa565b600a60006006546000191660001916815260200190815260200160002080548060200260200160405190810160405280929190818152602001828054801561171a57602002820191906000526020600020905b8160009054906101000a900473ffffffffffffffffffffffffffffffffffffffff1673ffffffffffffffffffffffffffffffffffffffff16815260200190600101908083116116d0575b5050505050905090565b60065481565b60008060149054906101000a900460ff1615151561174457fe5b61174f338484610c82565b905092915050565b6000809054906101000a900473ffffffffffffffffffffffffffffffffffffffff1673ffffffffffffffffffffffffffffffffffffffff163373ffffffffffffffffffffffffffffffffffffffff161415156117b257600080fd5b60008060146101000a81548160ff021916908315150217905550565b6000809054906101000a900473ffffffffffffffffffffffffffffffffffffffff1673ffffffffffffffffffffffffffffffffffffffff163373ffffffffffffffffffffffffffffffffffffffff1614151561182957600080fd5b806002908051906020019061183f929190611b3a565b5050565b6000809054906101000a900473ffffffffffffffffffffffffffffffffffffffff1673ffffffffffffffffffffffffffffffffffffffff163373ffffffffffffffffffffffffffffffffffffffff1614151561189e57600080fd5b4340604051808260001916600019168152602001915050604051809103902060068160001916905550565b6000809054906101000a900473ffffffffffffffffffffffffffffffffffffffff1673ffffffffffffffffffffffffffffffffffffffff163373ffffffffffffffffffffffffffffffffffffffff1614151561192457600080fd5b6000809054906101000a900473ffffffffffffffffffffffffffffffffffffffff1673ffffffffffffffffffffffffffffffffffffffff166108fc3073ffffffffffffffffffffffffffffffffffffffff16319081150290604051600060405180830381858888f19350505050151561199c57600080fd5b565b6000600960006006546000191660001916815260200190815260200160002060008473ffffffffffffffffffffffffffffffffffffffff1673ffffffffffffffffffffffffffffffffffffffff16815260200190815260200160002060008373ffffffffffffffffffffffffffffffffffffffff1673ffffffffffffffffffffffffffffffffffffffff16815260200190815260200160002054905092915050565b60008060149054906101000a900460ff16151515611a5a57fe5b611a65833384610c82565b905092915050565b60008282840391508111151515611a8357600080fd5b92915050565b60008183029050600081148015611aab57506000831480611aaa5750600082145b5b80611ac45750818311611abe5781611ac0565b825b8110155b1515611acf57600080fd5b92915050565b6000808211611ae5576000611af2565b8183811515611af057fe5b045b905092915050565b602060405190810160405280600081525090565b815481835581811511611b3557818360005260206000209182019101611b349190611bba565b5b505050565b828054600181600116156101000203166002900490600052602060002090601f016020900481019282601f10611b7b57805160ff1916838001178555611ba9565b82800160010185558215611ba9579182015b82811115611ba8578251825591602001919060010190611b8d565b5b509050611bb69190611bba565b5090565b611bdc91905b80821115611bd8576000816000905550600101611bc0565b5090565b905600a165627a7a72305820d18b9276f40b0c257c7762ec3419d743003800f94102e6446f3e7873980126f00029",
  "source": "// Licensed under the Apache License, Version 2.0 (the \"License\");\n// you may not use this file except in compliance with the License.\n// You may obtain a copy of the License at\n//\n//     http://www.apache.org/licenses/LICENSE-2.0\n//\n// Unless required by applicable law or agreed to in writing, software\n// distributed under the License is distributed on an \"AS IS\" BASIS,\n// WITHOUT WARRANTIES OR CONDITIONS OF ANY KIND, either express or implied.\n// See the License for the specific language governing permissions and\n// limitations under the License.\n\npragma solidity ^0.4.18;\n\nimport \"./Math.sol\";\nimport \"./Owned.sol\";\nimport \"./Stoppable.sol\";\n\n\ncontract TokenEvents {\n    event Burnt(address indexed src, uint256 wad);\n    event Minted(address indexed src, uint256 wad);\n    event Transfer(address indexed from, address indexed to, uint256 value);\n    event Approval(address indexed owner, address indexed spender, uint256 value);\n}\n\n\ncontract PollToken is Owned, Stoppable, TokenEvents {\n    string public symbol;\n    string public name; // Optional token name\n    uint8 public decimals = 18; // standard token precision. override to customize\n\n    uint256 public totalSupply;\n    uint256 public maxBalance;\n    bytes32 public poll;\n\n    mapping(bytes32 => bool) polls;\n    mapping(bytes32 => mapping(address => uint256)) balances;\n    mapping(bytes32 => mapping(address => mapping(address => uint256))) allowances;\n    mapping(bytes32 => address[]) questions;\n\n    modifier canTransfer(address src, address dst) {\n        _;\n    }\n\n    function PollToken(string name_, string symbol_) public {\n        // you can't create logic here, because this contract would be the owner.\n        name = name_;\n        symbol = symbol_;\n        stopped = true;\n    }\n\n    function () payable public {\n        maxBalance = Math.add(maxBalance, msg.value);\n    }\n\n    function stop() public onlyOwner {\n        stopped = true;\n        maxBalance = this.balance;\n    }\n\n    function retrieveBalance() public onlyOwner {\n        owner.transfer(this.balance);\n    }\n\n    function balanceOf( address who ) public view returns (uint256) {\n        return balances[poll][who];\n    }\n\n    function getQuestions() public view returns (address[]) {\n        return questions[poll];\n    }\n\n    function addPoll() public onlyOwner {\n        poll = keccak256(block.blockhash(block.number));\n    }\n\n    function setPoll(bytes32 poll_) public onlyOwner {\n        //we only accept existing poll IDs\n        require(polls[poll_]);\n        poll = poll_;\n    }\n\n    function addQuestion(address question) public {\n        questions[poll].push(question);\n    }\n\n    function allowance(address owner, address spender ) public view returns (uint256) {\n        return allowances[poll][owner][spender];\n    }\n\n    function transfer(address dst, uint256 wad) public stoppable returns (bool) {\n        return transferFrom(msg.sender, dst, wad);\n    }\n\n    function getPayoutAmount(uint256 wad) public view returns (uint256) {\n            uint256 portion = Math.div(Math.mul(totalSupply, 1000), wad);\n            return Math.div(Math.mul(maxBalance, 1000), portion);\n    }\n\n    function transferFrom(address src, address dst, uint256 wad) public stoppable returns (bool) {\n        //TODO: check if memory is the correct place\n        address[] memory pollQuestions = questions[poll];\n        bool isQuestionDst;\n        for (uint16 i = 0; i < pollQuestions.length; ++i) {\n            if (pollQuestions[i] == dst) {\n                isQuestionDst = true;\n            }\n        }\n        //user etiher transfers their own tokens or they were given an allowance\n        if(msg.sender != src) {\n            require(allowances[poll][src][msg.sender] >= wad);\n            require(isQuestionDst);\n        }\n\n        balances[poll][src] = Math.sub(balances[poll][src], wad);\n        balances[poll][dst] += Math.add(balances[poll][dst], wad);\n        Transfer(src, dst, wad);\n\n        if(isQuestionDst) {\n            src.transfer(getPayoutAmount(wad));\n        }\n\n        return true;\n    }\n\n    function approve(address guy, uint256 wad) public stoppable returns (bool) {\n        allowances[poll][msg.sender][guy] = wad;\n        Approval(msg.sender, guy, wad);\n        return true;\n    }\n\n    function pull(address src, uint256 wad) public stoppable returns (bool) {\n        return transferFrom(src, msg.sender, wad);\n    }\n\n    function mint(address dst, uint256 wad) public onlyOwner {\n        balances[poll][dst] = Math.add(balances[poll][dst], wad);\n        totalSupply = Math.add(totalSupply, wad);\n        Minted(dst, wad);\n        Transfer(address(0x0), dst, wad);\n    }\n\n    function burn(uint256 wad) public {\n        balances[poll][msg.sender] = Math.sub(balances[poll][msg.sender], wad);\n        totalSupply = Math.sub(totalSupply, wad);\n        Burnt(msg.sender, wad);\n        Transfer(msg.sender, address(0x0), wad);\n    }\n\n    function setName(string name_) public onlyOwner {\n        name = name_;\n    }\n}\n",
  "sourcePath": "/Users/mroon/Documents/projects/swissborg-referendum/contracts/PollToken.sol",
  "compiler": {
    "name": "solc",
    "version": "0.4.18+commit.9cf6e910.Emscripten.clang"
  },
  "schemaVersion": "1.0.1",
  "updatedAt": "2018-01-13T16:26:09.902Z"
}